:020000040800F2
:10000000E0D1002061020008E54A00083F370008FF
:10001000F9470008D10A0008E95C00080000000068
:10002000000000000000000000000000A101000826
:10003000950B000800000000FD010008695300084E
:100040007B0200087B0200087B0200087B0200089C
:100050007B0200087B0200087B0200087B0200088C
:100060007B0200087B0200087B0200087B0200087C
:100070007B0200087B0200087B0200087B0200086C
:100080007B0200087B020008710900087B0200085F
:100090007B0200087B0200087B020008A50B000819
:1000A0007B020008515500087B0200087B02000813
:1000B0007B0200087B0200087B0200087B0200082C
:1000C0007B0200087B0200087B0200087B0200081C
:1000D0007B0200087B0200087B0200087B0200080C
:1000E0007B0200087B0200087B0200087B020008FC
:1000F0007B0200087B020008995500087B0200087B
:100100007B0200087B0200087B0200087B020008DB
:100110007B0200087B0200085D5500087B02000896
:100120007B0200087B0200087B0200087B020008BB
:100130007B02000800000000000000007B020008B5
:100140007B0200087B0200087B0200087B0200089B
:100150007B0200087B0200087B0200087B0200088B
:100160007B0200087B0200087B0200087B0200087B
:100170007B0200087B020008000000000000000075
:100180007B0200087B020008DFF810D000F0B2FB11
:100190000048004791FA0008AFF30080E0D100204A
:1001A0002C4B19680868B0E8F04F80F30988BFF35A
:1001B0006F8F4FF0000080F311887047000000003F
:1001C00008480068006880F308884FF0000080F35A
:1001D000148862B661B6BFF34F8FBFF36F8F00DF35
:1001E00000BF00BF08ED00E0DFF80C00016841F43B
:1001F00070010160704700BF88ED00E0EFF30980F7
:10020000BFF36F8F134B1A681EF0100F08BF20ED5D
:10021000108A20E9F04F106009B44FF0500080F3CD
:100220001188BFF34F8FBFF36F8F10F03BFB4FF080
:10023000000080F3118809BC19680868B0E8F04F25
:100240001EF0100F08BFB0EC108A80F30988BFF3CE
:100250006F8F704774030020EFF305807047000034
:100260000648804706480047FEE7FEE7FEE7FEE750
:10027000FEE7FEE7FEE7FEE7FEE7FEE73154000893
:10028000890100082DE9F05F0546002092469B4653
:1002900088460646814640241BE02846414647469C
:1002A000224600F041FA53465A46C01A914110D3F3
:1002B00011461846224600F028FA2D1A67EB01086D
:1002C0004F4622460120002100F01FFA17EB0009DB
:1002D0004E41201EA4F10104DFDC484631462A4687
:1002E0004346BDE8F09F40EA01039B0703D009E0C5
:1002F00008C9121F08C0042AFAD203E011F8013B12
:1003000000F8013B521EF9D27047D2B201E000F86A
:10031000012B491EFBD270470022F6E710B51346A9
:100320000A4604461946FFF7F0FF204610BD421C5E
:1003300010F8011B0029FBD1801A7047034611F801
:10034000012B00F8012B002AF9D1184670472DE93E
:10035000FE4F804681EA0300C00F0C46009021F05A
:10036000004123F00045B8EB0200A94105D2404608
:10037000214690461C460B46024623F0004010439F
:1003800047D0270DC7F30A00C3F30A510290401A61
:10039000019040286BDAC3F3130040F4801B0098EF
:1003A000924620B10023D2EB030A63EB0B0B0198BA
:1003B0005946C0F14002504600F0A7F906460D46E6
:1003C00050465946019A00F0BFF910EB0800614110
:1003D000002487EA115284EAE7731A4340D0009A56
:1003E00062B3019A012A4FEA075215DC001B61EB48
:1003F00002014FF0004202EA0752CDE90042001C20
:1004000041F5801132462B4600F0F6F903B0BDE805
:10041000F08F40462146F9E7001B61EB0201001C0A
:1004200041F5801300185B412018A2F5001747EB37
:10043000030140EAD570B6196D4111E06D084FEA2D
:10044000360645EAC0754FEA0752001B61EB020110
:10045000001C41F5801149084FEA30000019514154
:1004600032462B4603B0BDE8F04F00F0B6B9009815
:10047000012240000023D0EB020263EBE0730098FE
:1004800021464FEAE074B8EB000061EB0401E9E7B4
:1004900083F000435BE781F0004158E72DE9FE4F10
:1004A00081EA030404F0004421F0004100944FF07D
:1004B000000B23F0004350EA01045ED052EA03042B
:1004C0005BD0C3F30A54C1F30A552C44A4F2F334AD
:1004D0000194A0FB0254C1F3130141F48011C3F352
:1004E000130343F4801301FB024400FB034E840A10
:1004F000970A44EA815447EA8357A4FB07680295A8
:100500008D0A05FB07854FEA932C04FB0C54270545
:10051000029D4FEA065847EA1637B5EB08056EEB21
:10052000070C870E920E47EA811742EA8312A7FB57
:100530000201B6EB0B0164EB00042B0D43EA0C3314
:100540005E1844EB1C50DA465146E7FB0201C5F346
:1005500013044FEA0B3343EA14534FEA0432019C6D
:1005600043EA0603A4F10C040294009CCDE900B414
:1005700000F042F903B0BDE8F08F00200146F9E732
:100580002DE9F04D81EA030404F0004B21F0004511
:1005900014464FF0000A23F0004150EA050220D033
:1005A00054EA01021DD0C5F30A570246C5F31303EE
:1005B000C1F31300C1F30A5640F4801543F48013CD
:1005C000A7EB0608101BD64608F2FD3873EB0500B2
:1005D00002D308F1010801E092185B41B8F1000F65
:1005E00003DA00200146BDE8F08D00204FF48011B1
:1005F000064684460EE0171B73EB050705D3121B56
:1006000063EB050306434CEA010C49084FEA30004E
:1006100092185B4150EA0107EDD152EA030012D073
:1006200082EA040083EA0501084305D0101BAB41B0
:1006300006D20122002306E000224FF0004302E030
:100640006FF0010253101AEB06004CEB085110EB4F
:100650000A0041EB0B01BDE8F04D00F0BEB80EB54D
:10066000C10F80EAE0700844CA07002140F233431A
:100670008DE80E000A460B4600F0BEF803B000BD40
:1006800000F0004230F000400AD0C10D01F5607169
:10069000C0F3160042EA0151C208400711437047F7
:1006A00000200146704701F0004330B421F00041C2
:1006B00050EA010206D00A0DA2F56072C1F31301DF
:1006C000002A02DC30BC00207047440F44EAC10419
:1006D000C100E01830BC00EBC25000F047B830B5A4
:1006E0000B46014600202022012409E021FA02F5F0
:1006F0009D4205D303FA02F5491B04FA02F528448A
:10070000151EA2F10102F1DC30BD202A04DB203AE3
:1007100000FA02F1002070479140C2F1200320FA54
:1007200003F3194390407047202A04DB203A21FA52
:1007300002F00021704721FA02F3D040C2F12002FA
:100740009140084319467047202A06DBCB17203A10
:1007500041FA02F043EAE07306E041FA02F3D040C6
:10076000C2F1200291400843194670470029A8BFF2
:100770007047401C490008BF20F00100704710B4CA
:10078000B0FA80FC00FA0CF050EA010404BF10BC7F
:10079000704749B1CCF1200421FA04F411FA0CF1AC
:1007A00018BF012121430843A3EB0C01CB1D4FEAE5
:1007B00000614FEA102042BF002010BC704700EBE0
:1007C000C35010440029A4BF10BC7047401C49000E
:1007D00008BF20F0010010BC704710B5141E73F163
:1007E000000408DA401C41F1000192185B411A43F1
:1007F00001D120F0010010BD2DE9F04D92469B463D
:1008000011B1B1FA81F202E0B0FA80F220329046E2
:10081000FFF77BFF04460F4640EA0A0041EA0B015E
:1008200053465A46084313D0114653EA010019D0E3
:10083000C8F140025046FFF777FF05460E46504686
:1008400059464246FFF761FF084305D0012004E006
:1008500020463946BDE8F08D0020054346EAE076A3
:100860002C4337430A986305E40AA0EB08000022F2
:10087000FD0A44EA47540A3002D500200146E9E760
:10088000010510196941DDE9084500196941BDE814
:10089000F04DA2E7C1F30A52C1F3130140F2FF3356
:1008A00041F480119A4202DA00200146704740F27A
:1008B00033439A42A2F2334202DC5242FFF734BF82
:1008C000FFF723BF30B5041E71F1000404DB4FF0C5
:1008D0000044404264EB0101141E73F1000405DB87
:1008E0001C464FF00043524263EB0403994208BF99
:1008F000904230BD064C074D06E0E06840F0010331
:1009000094E8070098471034AC42F6D3FFF740FC58
:10091000647004088470040870B58C1810F8015BCA
:1009200015F0070301D110F8013B2A1106D110F888
:10093000012B03E010F8016B01F8016B5B1EF9D18C
:100940002B0705D40023521E0DD401F8013BFAE712
:1009500010F8013BCB1A921C03E013F8015B01F87D
:10096000015B521EF9D5A142D8D3002070BD000012
:10097000014800F00FBB000030060020464910B5CA
:100980004A6822F440324A604A6843681A434A601F
:1009900001684A6822F480724A6001684A68036903
:1009A00042EA03224A6001684A6822F040724A60C3
:1009B00001684A6883681A434A6001688A6822F4B9
:1009C00000628A6001688A68C3681A438A60816A23
:1009D0006FF07062D14201688A6822F070628A60AA
:1009E00001688A680CD0836A1A438A6001688A6841
:1009F00022F040528A6001688A68C36A1A4301E0A3
:100A000022F040528A6001688A6822F002028A60FD
:100A100001688A68037E42EA43028A6090F82010E7
:100A2000002901684A680FD042F400624A600168F8
:100A30004A6822F460424A6001684A68174C436A77
:100A400004EB43331A4301E022F400624A60016878
:100A5000CA6A22F47002CA620168CA6A838B104CA7
:100A600004EB03531A43CA6201688A6822F40072D5
:100A70008A6001688A6890F8303042EA43228A60CE
:100A800001688A6822F480628A6001688A68406925
:100A900042EA8020886010BD0023014000E0FFFF93
:100AA0000000F0FF38B50EF0E3F900210BF044FA36
:100AB000044606490BF0BDFE0020034602460146EF
:100AC000009020460DF0DEF938BD0000DC4B040834
:100AD000FEE700000146024840690CF078BD0000C6
:100AE0001C02002038B50EF0C3F900210CF032F8DA
:100AF0000C4C0D4960610D480EF0C1F90B490C48D2
:100B0000486260690DF000FF0AA160690CF05FFDAA
:100B10006E2000902D230122002160690DF0B2F9B2
:100B200038BD00001C020020881B0020F48C00202F
:100B3000A801002030302E3030000000014602486D
:100B400040680CF044BD00001C02002038B50EF0D7
:100B50008FF900210BF0FEFF0A4C0B4960600B4837
:100B60000EF08DF909490A48486260680DF0CCFE24
:100B7000252000906F230122002160680DF082F98A
:100B800038BD00001C020020881B00207C8C002047
:100B90007C010020704700000421014802F0A2B946
:100BA0003808002010B54FF4807000F0ABFBBDE8B2
:100BB00010404FF4007000F0A5BB72B6FEE70000D5
:100BC00010B5104CA06A0DF00BFCE06A0DF008FCAB
:100BD000206B0DF005FC606B0DF002FCA06B0DF0BE
:100BE000FFFBE06B0DF0FCFB206C0DF0F9FB606C83
:100BF0000DF0F6FB606A0DF0F3FBA06CBDE8104051
:100C00000DF0EEBB1C02002001460248806F0CF084
:100C1000DEBC00001C02002038B50EF029F90021CE
:100C20000BF098FF0C4C0D49A0670D480EF027F90A
:100C30000B490C484862A06F0DF066FE0AA1A06F38
:100C40000CF0C5FC002001460090F6230122A06FA5
:100C50000DF018F938BD00001C020020881B002090
:100C6000C48F0020500100203030303000000000E0
:100C700010B50C21054802F03BFA0421044802F0AB
:100C80002FFC03498B200968886310BDC808002029
:100C9000F00700201B4830B401884FF47A73994262
:100CA0002DD3194A00210180108800EB800404EB49
:100CB000C000164C80B220801180B0FBF3F164229A
:100CC000B0FBF2F20A23B2FBF3F403FB1422B0FBF5
:100CD000F3F4B4FBF3F503FB1544B0FBF3F503FBAE
:100CE00015000A4B30319B1C3032197030345A7069
:100CF0009C703030D87030BC1846FFF785BF30BCD0
:100D0000704700002A00002028000020E800002092
:100D10001FB516A201AB07CA174C83E8070020785D
:100D2000002821D000221549154801F0E3FA0022DD
:100D3000211D134801F0BCFA10486178027843780D
:100D400080788A4205D1A1788B4202D1E17888422D
:100D50000AD06270A370E07000900AA101A805F0AB
:100D6000F1FA01A804F002F81FBD000030303A305B
:100D7000303A303000000000E0000020481A002027
:100D800020070020253032643A253032643A25307D
:100D90003264000010B52DED028B0FF011FC10EE47
:100DA000100AFFF76DFC41EC100B0EF0D3FEB0EE15
:100DB000408AF0EE608A9FED160B0EF0CBFEB0EE8F
:100DC000401AF0EE601A53EC182B51EC110BFFF7A0
:100DD0005FFB9FED111B53EC112BFFF7D1FBFFF7CE
:100DE00062FCFFF74DFC9FED0E1B53EC112BFFF740
:100DF00052FBFFF758FC00EE100AB7EE001ABDECEC
:100E0000028BC1EE000A9FED080A30EEC00A10BD49
:100E100000000000000024400000000000D6AA40AE
:100E200083DBB5DCE1796B3F339388437047000087
:100E300078B50024009490F83C20012A19D00122B2
:100E400080F83C200A6807230568092A13D9EE6850
:100E50000A3A02EB420293409E43EE600B788A68A6
:100E60000A3B03EB43039A400368DD682A43DA60D8
:100E700010E0022078BD2E6902EB420293409E43AF
:100E80002E610B788A6803EB43039A4003681D695F
:100E90002A431A614A681F23072A13D205686E6B1A
:100EA000521E02EB820293409E436E630B790A88C6
:100EB0005B1E92B203EB83039A4003685D6B2A4387
:100EC0005A6327E005680D2A12D22E6BD21F02EB5F
:100ED000820293409E432E630B790A88DB1F92B2F5
:100EE00003EB83039A4003681D6B2A431A6311E0E6
:100EF000EE6A0D3A02EB820293409E43EE620B795A
:100F00000A880D3B92B203EB83039A400368DD6AC3
:100F10002A43DA62164B0568144A9D4206D10D68D1
:100F2000122D03D1556845F48005556005689D4232
:100F300018D10B68102B01D0112B13D1536843F437
:100F400000035360096810290CD10A490A4A09684C
:100F5000B1FBF2F101EB8101490000E0491E009173
:100F60000029FBD180F83C40002078BD00230140DF
:100F7000002001404000002040420F0010B500F06A
:100F800006F80149086010BD4C0000207047006859
:100F9000C06C704770B50446006801684268C1F3D0
:100FA0004001C2F3401251B34AB3216CC90603D4C5
:100FB000216C41F400712164816811F0405F17D108
:100FC000217EA9B9C16A11F4700F02D08168490568
:100FD0000ED4416821F020014160206C20F4807023
:100FE0002064206CC00403D4206C40F00100206415
:100FF0002046FFF7C3FF21686FF0120008602068E9
:1010000001684268C1F38001C2F3C01289B382B3A0
:10101000216CC90603D4216C41F40051216481681C
:1010200011F4401F1ED1816B11F4401F02D0816862
:10103000490517D44168490514D4816811F0405F0F
:1010400010D1217E71B9416821F080014160206C8E
:1010500020F480502064206CC00503D4206C40F044
:10106000010020642046FFF7E1FE21686FF00C00CC
:10107000086020680168426811F0010FC2F3801215
:101080000ED06AB10068C0070AD0206C40F48030EE
:101090002064204600F046F821686FF001000860E7
:1010A000206801684268C1F34011C2F380620029E0
:1010B0000DD0002A0BD0616C41F0020161646FF029
:1010C000200505602046FFF761FF2068056070BDC0
:1010D00070B504004FF0000503D0206C002610B15D
:1010E00007E0012070BD204600F01EF8666484F819
:1010F0003C60206CC00610D4206C20F4885040F076
:10110000020020642046FFF739FC6664206C20F062
:10111000020040F00100206400E0012584F83C60FA
:10112000284670BD7047000010B586B004461421F3
:101130006846FFF7F1F815492068884224D1144821
:101140000021026842F480720260006800F480703E
:1011500005900F481438026842F0040202600068EB
:1011600000F004000590022000900320CDE9010169
:101170006946084800F0D2F800220521122000F04C
:1011800005FD122000F0F4FC06B010BD0020014067
:10119000443802400008024018B50021009190F840
:1011A0003C20012A07D0012280F83C200268936885
:1011B000DB0702D011E0022018BD936843F0010361
:1011C0009360314A314B1268B2FBF3F202EB4202F8
:1011D00000E0521E0092002AFBD102689368DB07F0
:1011E00047D0036C40F20164A34343F4807303646B
:1011F00053685B0505D5036C23F4005343F4805317
:101200000364036CDB0404D5436C23F006034364DE
:1012100000E0416480F83C101D4B6FF0220111602A
:1012200001684A681B4C22434A6059680068CA0634
:10123000194906D0884224D1816811F0405F13D04B
:101240001FE08842F8D0154A904203D1D1F8042318
:10125000D206F1D0124A904213D1D1F8041301F012
:101260001F011029E8D30CE0816841F080418160C2
:1012700007E0016C41F010010164416C41F0010193
:101280004164002018BD00004000002040420F00D3
:101290000023014020000004002001400021014003
:1012A0000022014070B5044600F042F90546601C7A
:1012B00002D004480078044400F03AF9401BA042F0
:1012C000FAD370BD3400002070B54FF480710B4A22
:1012D00001240B4D884206D1104600F017F9002872
:1012E00000D12C7070BD4FF400718842FAD11046C5
:1012F00000F00CF90028F5D16C7070BD00040240BC
:1013000024000020044910B50A68024202D0086097
:10131000FFF7DAFF10BD0000143C01402DE9F84F43
:10132000DFF8BCA1002201250AF1040B03264FF0CF
:101330000F090BF1040E00BF0B6805FA02F42340FD
:10134000A34270D10F7907F00307012F01D0022FBC
:1013500016D187684FEA420806FA08FC27EA0C070C
:10136000D1F80CC00CFA08FC4CEA070CC0F808C015
:101370004768A7430C79C4F3001494403C4344608D
:101380000C79E443A4070AD0C4684FEA420C06FA79
:101390000CF7BC438F6807FA0CF72743C7600C793A
:1013A00004F00304022C12D1D40800EB840CDCF806
:1013B00020405707FF0E09FA07F824EA0804D1F87D
:1013C000108008FA07F848EA0408CCF8208004687E
:1013D0004FEA420C06FA0CF7BC430F7907F00307FB
:1013E00007FA0CF7274307604C6814F4403F70D0AD
:1013F0003C4C276847F480472760246822F00307A5
:1014000004F480440094384C07EB040CDCF80848E2
:1014100097074FEA177809FA08F7BC43334FB842E9
:1014200002D1002724E054E0314FB84201D1012716
:101430001EE0304FB84201D1022719E02E4FB842CA
:1014400001D1032714E02D4FB84201D104270FE04A
:101450002B4FB84201D105270AE02A4FB84201D1EB
:10146000062705E0284FB84201D1072700E00827EA
:1014700007FA08F72743CCF80878DAF8004057460F
:10148000D1F804C09C435FEACC3C00D51C433C60CF
:10149000DBF800405F46D1F804C09C435FEA8C3C17
:1014A00000D51C433C60DEF800407746D1F804C00C
:1014B0009C435FEACC2C00D51C433C60084F0C37A2
:1014C0003C68D1F804C09C435FEA8C2C00D51C43D7
:1014D0003C60521C102AFFF42FAFBDE8F88F0000CB
:1014E000003C01404438024000300140000002400E
:1014F0000004024000080240000C024000100240BC
:101500000014024000180240001C0240006908401C
:1015100000D001207047426921EA02030A4043EAF1
:101520000241816170470AB1816170470904FBE79C
:10153000014880687047000034000020006C70474C
:1015400070B5040025D094F83D00002520B984F83A
:101550003C50204600F03EFA242084F83D002068EC
:10156000016821F0010101602068016841F4004137
:1015700001602068016821F40041016000F090FCE6
:101580004D4A6168914201D84C4900E04C4988427B
:1015900001D2012070BD4B492368B0FBF1F15E68B8
:1015A00026F03F060E435E606368934206D94FF40F
:1015B000967359434FF47A73B1FBF3F12368491CD6
:1015C0001E6A26F03F06314319626168914210D8C5
:1015D0004900401EB0FBF1F2521CC2F30B02042A78
:1015E00001D2042022E0B0FBF1F0401CC0F30B005C
:1015F0001CE0A268F2B301EBC10303EB0116431E2A
:10160000B3FBF6F35B1C43F480431B0549D092B354
:1016100001EBC10202EB0111401EB0FBF1F0401CD6
:10162000C0F30B0040F4804040F400402168CA69D8
:101630004CF6FF739A431043C861D4E90710014385
:101640002068026822F0C00211430160D4E903015E
:1016500001432068826848F2FF339A431143816056
:10166000D4E9050108432168CA6822F0FF0210434B
:10167000C86001E00EE016E02068016841F0010159
:1016800001602564202084F83D00256384F83E50E5
:10169000002070BD01EB4106431EB3FBF6F35B1C5B
:1016A000B3E70120C2E701EB4101401EB0FBF1F0BE
:1016B000401CC0F30B00B7E7A086010080841E0029
:1016C00000093D0040420F002DE9F84F1F469046AB
:1016D0008A460446DDF82890FFF72AFF054694F86D
:1016E0003D00202875D1192301226C492046009520
:1016F00002F028F90028F5D194F83C00012868D0C0
:10170000012084F83C0020680168C90703D1016802
:1017100041F0010101602068016821F4006101606D
:10172000222084F83D00102084F83E000026266424
:10173000C4F824806785608D20855948E0622B4677
:101740004A465146204602F013F8002878D1208DF1
:10175000544F68B1012814D002282068016816D0BF
:1017600041F480610160206841698069009087E0F0
:101770002068416981690091016841F4007101604C
:101780007EE02068016821F480610160F0E721F4C7
:10179000806101602068016841F40061E2E703288C
:1017A00048D801280AD0022814D04B4600223946D6
:1017B0002046009502F0C6F8D8BB27E02A464946E5
:1017C000204602F03EF9A0BB20680069616A0870FB
:1017D0004DE061E04B46002239462046009502F07C
:1017E000B1F830BB2068016841F4007101602068E5
:1017F0000069616A0870606A401C6062218D491E40
:101800002185618D491E618521682EE0206801686F
:1018100021F48061016020680069616A0870606A73
:10182000401C6062208D401E2085608D401E6085BA
:10183000D0E705E02A464946204602F002F910B1F9
:101840000120BDE8F88F20680069616A0870606A4D
:10185000401C6062218D491E2185618D491E618574
:1018600021684A69D24352070AD409690170606A43
:10187000401C6062208D401E2085608D401E60856A
:10188000208D00288BD1202084F83D0084F83E6014
:1018900084F83C600020D4E70220D2E70200100068
:1018A0000000FFFF040001002DE9F84F1F4690469D
:1018B0008A460446DDF82890FFF73AFE054694F87C
:1018C0003D0020287FD11923012240492046009560
:1018D00002F038F8002876D194F83C00012872D044
:1018E000012084F83C0020680168C90703D1016821
:1018F00041F0010101602068016821F4006101608C
:10190000212084F83D00102084F83E000026266443
:10191000C4F824806785608D20852D48E0622B46C1
:101920004A465146204601F099FF90B92068416926
:101930008069009036E02A464946204602F0B4F815
:1019400050B1206C042804D12068016841F4007172
:1019500001600120BDE8F88F606A216800780861A5
:10196000606A401C6062618D491E6185218D491E3F
:1019700089B2218522685369DB435B070BD451B1DF
:1019800000781061606A401C6062608D401E608556
:10199000208D401E20852A464946204601F0ACFF96
:1019A0000028CED1208D0028C5D154F83D0B016808
:1019B00041F400710160202004F81E09E677667783
:1019C0000020C7E7FFE70220C4E700000200100084
:1019D0000000FFFFF0B587B0044614216846FEF70B
:1019E0009BFC2768234CDFF888C000222149122382
:1019F0000325042620481034674518D10F6847F0A6
:101A000002070F60096802AF01F002010591C021D1
:101A1000CDE9001387E864006946FFF77FFC206882
:101A200040F400102060206800F400101CE0DFF893
:101A30004CC0674519D10F6847F002070F6009686D
:101A400002AF01F0020105914FF44061CDE90013AE
:101A500087E864006946FFF761FC206840F4800075
:101A60002060206800F48000059007B0F0BD000001
:101A7000005400403038024000040240005800404A
:101A80000248816802781144816070473400002068
:101A90000B4810B5016841F400710160016841F420
:101AA00080610160016841F480710160032000F0F1
:101AB0008DF80F2000F006F800F03EF8002010BD71
:101AC000003C024010B5014688B00022192000F009
:101AD0005DF8192000F04CF813480024016841F02B
:101AE00001010160006805A900F001000690684648
:101AF00000F0B6F900F0E4F90C494000B0FBF1F158
:101B00000C480B4A491E026040F2E732C0E9032448
:101B1000C0E9011401F026F810B1012008B010BD91
:101B2000044801F0ABF8F9E74438024040420F00A6
:101B300000000140D40900200C4882B0016841F443
:101B400080410160006800F4804000900748001F59
:101B5000016841F0805101600068002200F080506F
:101B600000900F21901E02B000F010B844380240DF
:101B7000002809DB00F01F0201219140400980008C
:101B800000F1E020C0F8001170470000F0B40E4BE7
:101B90001B680C46C3F30223C3F10705042D00D9CB
:101BA0000425191D072901D2002300E0DB1E0126B0
:101BB00006FA05F1491E214099409E40761E1640C6
:101BC0003143F0BC04F0ECBB0CED00E0064900F042
:101BD000070208684FF6FF03184040EA0220034A54
:101BE00010430860704700000CED00E00000FA05AB
:101BF0002DE9F843054600684FF00109C1074FF091
:101C0000000601D1400727D5DFF80C81C8F86860CD
:101C1000FFF78EFC0746414C05E000BFFFF788FC4C
:101C2000C01B022857D820680001F7D468688101DA
:101C3000287A41EA0070394984310860C8F8689010
:101C4000FFF776FC074604E0FFF772FCC01B022892
:101C500041D820680001F7D52878800752D52F4851
:101C60004030016841F08051016000682C4C00F068
:101C700080500090206840F480702060FFF758FC8E
:101C8000074604E0FFF754FCC01B022823D8206855
:101C9000C005F7D5214C7034206810F4407020D076
:101CA000A98901F4407181421BD020681D4920F4AC
:101CB0004070C1F800900E6020602068C00710D00E
:101CC000FFF736FC064641F2883707E0FFF730FCA5
:101CD000801BB84202D90320BDE8F8832068800742
:101CE000F4D5E9680D48C1F301220830032A0BD06E
:101CF000016821F4F81101602068A989C1F30B0182
:101D0000084320600020E7E70268074B22F4F8123E
:101D100019400A430260EFE70000474200380240E2
:101D200000700040400E4742FFFCFF0F2DE9F047D6
:101D30000E46050065D0DFF81481D8F80000F7B230
:101D400000F00700B04207D288F80070D8F8000011
:101D500000F00700B04254D128683D4C810712D5ED
:101D6000400703D5206840F4E05020602878000741
:101D700003D5206840F4604020602068A96820F006
:101D8000F000084320602878C0072DD030496868EB
:101D90000839012812D0022813D0032811D009686D
:101DA000890700292DDA216821F003010143216010
:101DB000FFF7BEFB814641F2883A0EE009688903CD
:101DC000EFE709688901ECE7FFF7B2FBA0EB090137
:101DD000514502D90320BDE8F0872068696800F00A
:101DE0000C00B0EB810FEFD1D8F80010404601F0A5
:101DF0000701B14207D90770006800F00700B04240
:101E000001D00120E7E72878400705D52068E96878
:101E100020F4E050084320602878000706D52068A9
:101E2000296920F4604040EAC100206000F058F8C1
:101E30002168084AC1F30311515CC8400649086093
:101E400006480068FFF73EFE0020C4E7003C024061
:101E500008380240980D010840000020380000209A
:101E60000F2202600C4A136803F0030343601368F7
:101E700003F0F0038360136803F4E053C360126857
:101E80004FF4E05303EAD20202610448006800F014
:101E9000070008607047000008380240003C02401C
:101EA0000448054900680968044AC1F38221515C6D
:101EB000C84070474000002008380240A80D0108C3
:101EC0000448054900680968044AC1F34231515C7D
:101ED000C84070474000002008380240A80D0108A3
:101EE000154810B5006810F00C02144813D01449BE
:101EF000042A0FD0082A0ED10F4C241F2268236811
:101F000002F03F025B0207D52068C0F38810A0FBF7
:101F1000010106E0084610BD2168C1F38811A1FB4C
:101F200000010023FEF7AEF92168C1F30141491C0D
:101F30004900B0FBF1F010BD083802400024F40065
:101F400040787D012DE9F84F04006ED02078DFF84D
:101F50004C93C007A9F104054AD009F104000168B7
:101F6000C1F38101012908D00068C0F38100022873
:101F70000AD1D9F80000400206D52868800337D579
:101F800060680028E1D033E06068B0F5803F10D091
:101F9000B0F5A02F286810D020F480302860286881
:101FA00020F4802028606068A8B1FFF7C1FA0646D7
:101FB0000DE0286840F48030F4E740F48020286089
:101FC000F7E700BFFFF7B4FA801B642873D82868CE
:101FD0008003F7D50CE0FFF7ABFA064605E000BF3B
:101FE000FFF7A6FA801B6428F0D828688003F7D48E
:101FF0002078DFF8AC8280074FF0000A3ED5A74872
:10200000001D016811F00C0F08D00068C0F38100BA
:1020100002280BD1D9F80000400207D428688007B5
:1020200016D5E068012800D112E033E1E068B8B1CC
:102030000120C8F80000FFF77BFA064605E000BF64
:10204000FFF776FA801B0228C0D828688007F7D5EA
:102050002868216920F0F80040EAC10028600DE0FE
:10206000C8F800A0FFF764FA064604E0FFF760FA3C
:10207000801B02281FD828688007F7D42078000723
:1020800022D5864F87486169703771B1012101609F
:10209000FFF74EFA064604E0FFF74AFA801B0228D3
:1020A00009D838688007F7D50EE0C0F800A0FFF720
:1020B0003FFA064605E082E0FFF73AFA801B022865
:1020C0007DD838688007F7D42078400768D5DFF8D6
:1020D000CCB100270BF13C0BDBF80000C0000BD4A7
:1020E000DBF8001041F08051CBF80010DBF8000065
:1020F000012700F0805000906B4E3068C00510D46E
:10210000306840F480703060FFF712FA009005E00C
:10211000FFF70EFA0099401A022850D83068C0051F
:10212000F6D55E4EA0686C3601280FD005283068C1
:1021300010D020F001003060306820F004003060E2
:10214000A068B8B1FFF7F4F900900FE0306840F0F4
:102150000100F4E740F004003060F7E7FFF7E8F92A
:102160000099411A41F28830814266D83068800770
:10217000F4D50EE0FFF7DCF9009007E0FFF7D8F99F
:102180000099411A41F28830814256D83068800760
:10219000F4D42FB1DBF8001021F08051CBF80010FF
:1021A000A069C8B33D49091D0968C1F3810102292D
:1021B0004AD00228504607D0C8F8600000E03CE052
:1021C000FFF7B6F904463BE04746C8F86000FFF762
:1021D000AFF9064605E000BFFFF7AAF9801B022809
:1021E0002BD828688001F7D4D4E907010843A16AF5
:1021F0002E4A490802EB0141626A41EA8211084312
:1022000094F82C1040EA0161C9F8001001203866EA
:10221000FFF78EF9044606E03EE000BFFFF788F9BD
:10222000001B022809D828688001F7D534E000BFD8
:10223000FFF77EF9001B022802D90320BDE8F88FC2
:1022400028688001F4D427E00128F7D0D9F80000ED
:10225000E26900F4800191421CD1226A00F03F0142
:10226000914217D147F6C071626A0140B1EB821FFB
:1022700010D1A26A4FF0FF3300F4403103EB520259
:10228000B1EB024F06D194F82C1000F07060B0EB67
:10229000016F01D00120D1E70020CFE704380240D0
:1022A00000004742800E4742007000400000FFFFE0
:1022B00010B500680B4641680D480140080CD87005
:1022C000C1F304245C7001F03F049C70C1F34231FF
:1022D000197052B902F018FDD870587802F014FD48
:1022E0005870987802F010FD9870002010BD000022
:1022F0003FFFFF0010B50B460168896A596001680D
:102300000969C1F30E019960006801680E48014037
:10231000C1F305401870C1F306245C7001F07F041E
:102320009C70402404EA1141D97052B902F0ECFCCF
:102330001870587802F0E8FC5870987802F0E4FCC5
:102340009870002010BD00007F7F7F0070B50400F2
:1023500002D0607F10B106E0012070BD0020207720
:10236000204600F049F8022060772168CA204862C0
:10237000216853204862204602F0DAFCFF2504263B
:1023800018BB206881681B4A1140816021688868F9
:1023900062681043D4E904231A431043886021681B
:1023A000E068086120680169228941EA024101610F
:1023B0002068C16821F08001C160206880688006C3
:1023C00007D4204600F00EF918B120684562667700
:1023D000C2E72068016C21F4802101642068016C4F
:1023E000A2691143016420684562012060770020E2
:1023F00070BD0000BFFF8FFF1FB50021009101914C
:10240000029103910068084988420CD10220009093
:10241000000203906846FFF7EBFB08B1FEF7CDFB27
:102420000249012008601FBD002800403C0E4742C1
:102430002DE9F0470446007F0B4601281FD04FF0DE
:10244000010984F81C9002206077DAB19878D97875
:1024500040EA014558781978000240EA41300543C6
:102460002168CA204862216853204862204602F051
:102470005FFC0026FF274FF0040860BB1AE0022033
:10248000BDE8F0875878C10603D500F0EF000A30A8
:102490005870D87802F041FC0204587802F03DFCF4
:1024A00042EA0022987802F038FC0243187842EAA7
:1024B0004035D5E70F480540206845602068C16871
:1024C00021F08001C1602068806880060AD420461F
:1024D00000F088F830B12068476284F81D802677C4
:1024E0000120CDE72068476284F81D902677002000
:1024F000C6E700003FFFFF002DE9F0470446007FDC
:102500000D46012827D04FF0010A84F81CA00220B4
:1025100060772068002680684FEA4060F2B10028AA
:1025200000DBEE70A878297840EA01476878E978FE
:10253000000240EA014007432168CA20486221683E
:1025400053204862204602F0F3FB4FF0FF084FF0A3
:102550000409A0BB16E00220BDE8F087002800DBDC
:10256000EE70287802F0D9FB0204687802F0D5FBFF
:1025700042EA0022A87802F0D0FB0243E87842EA5F
:102580000047D9E71648074020680760206881683F
:1025900021F480218160D5E90301084321688A681C
:1025A000104388602068C16821F08001C160206804
:1025B000806880060BD4204600F014F838B12168FA
:1025C000C1F8248084F81D9026770120C4E7216893
:1025D000C1F8248084F81DA026770020BCE7000005
:1025E0007F7F7F0070B504460068C16821F0A001BC
:1025F000C160FEF79DFF05464FF47A7607E000BF05
:10260000FEF796FF401BB04201D9032070BD206841
:10261000C0688006F4D5002070BD70B5040009D0F4
:10262000606A002540B125616561A56294F851009A
:1026300040B10CE0012070BD6068B0F5827FF4D03D
:10264000E561F2E784F85050204600F045F802209A
:1026500084F851002068016821F040010160A088E1
:10266000218900F4827001F404410843A18901F436
:1026700000610843217C01F002010843217D01F043
:1026800001010843218B01F400710843217F01F00F
:102690003801084394F8201001F080010843218D8F
:1026A00001F40051084321680860A069042101EA8F
:1026B000104094F8241001F010010843216848608C
:1026C0002068C16921F40061C1616565012084F859
:1026D0005100002070BD000070B586B00446142182
:1026E0006846FDF719FE234E226800212248022386
:1026F00003240525B2421AD11F4A1432166846F443
:1027000080561660126802F480520592026842F008
:1027100001020260006802AA00F00100059082E850
:102720003200E020CDE90003694614481DE0144E54
:10273000B2421CD1104A1032166846F48046166028
:10274000126802F480420592026842F002020260BE
:10275000006802AA00F00200059082E832004FF4FF
:102760006040CDE9000369460648FEF7D7FD06B094
:1027700070BD0000003001403038024000000240CF
:1027800000380040000402402DE9F84F044690F85C
:10279000500000271D461646894601280DD04FF0EF
:1027A000010B84F850B0FEF7C3FE804694F8510048
:1027B000BA46012804D0022793E00220BDE8F88F32
:1027C000B9F1000F73D0002E71D0032084F85100AE
:1027D000C4F854A0C4F83090A686E686C4F838A0A1
:1027E000A4F83CA0A4F83EA0C4F844A0C4F840A0BB
:1027F000A068B0F5004F09D12068016821F04001C0
:1028000001602068016841F480410160206801682E
:10281000490603D4016841F040010160E068B0F569
:10282000006F606803D030B3012E24D041E008B1BE
:10283000012E1CD1206B21680088C86006E020684A
:102840008168890709D5216B0988C160206B801CCC
:102850002063E08E401EE08609E0FEF769FEA0EBF3
:102860000800A84202D3681C01D031E07DB3E08E9D
:102870000028E4D120E0206B21680078087306E08E
:1028800020688168890709D5216B09780173206B5D
:10289000401C2063E08E401EE0860AE0FEF748FE02
:1028A000A0EB0800A84203D3681C02D010E017E098
:1028B0006DB1E08E0028E3D142462946204602F061
:1028C0008BFA08B120206065A06818B106E0FFE728
:1028D000032706E02068C16880680090606D00B141
:1028E000012784F851B084F850A0384666E72DE9F6
:1028F000F84F044690F8500000270A9E1D46924665
:102900008B464FF0010901280ED0012084F85000B9
:10291000FEF70EFE804694F85100616801280CD045
:10292000B1F5827F07D102E00220BDE8F88FA168EF
:1029300009B9042801D00227C2E0BBF1000F27D05B
:10294000BAF1000F24D01DB394F85100042802D02E
:10295000052084F8510000206065C4F838A0E587A0
:10296000A587C4F830B0E586A58620646064206839
:102970000168490603D4016841F040010160E06844
:10298000B0F5006F606805D0E8B3012D46D07FE058
:10299000012795E008B1012D39D1206B216800880D
:1029A000C860206B801C2063E08E401EE0862EE015
:1029B0002068816889070FD5E18E69B1B9F1010FEF
:1029C0000AD1216B0988C160206B801C2063E08ED6
:1029D000401EE0864FF0000920688168C9070CD0CE
:1029E000E18F51B1C068A16B0880A06B801CA0630F
:1029F000E08F401EE0874FF00109FEF799FDA0EB44
:102A00000800B04200E009E001D3701C50D1E08E14
:102A10000028CDD1E08F0028CAD13FE0206B21688B
:102A200000780873206B401C2063E08E401EE08617
:102A30002EE02068816889070FD5E18E69B1B9F170
:102A4000010F0AD1216B09780173206B401C2063B0
:102A5000E08E401EE0864FF0000920688168C907BB
:102A60000CD0E18F51B1C068A16B0870A06B401C05
:102A7000A063E08F401EE0874FF00109FEF758FD8C
:102A8000A0EB0800B04202D3701C01D010E07EB170
:102A9000E08E0028CDD1E08F0028CAD142463146D1
:102AA000204602F099F928B101272020606507E04F
:102AB000032705E0A06818B92068C1688068009005
:102AC000012084F85100002084F8500038462CE79B
:102AD0007047704770B590F83C20012A32D001242D
:102AE00080F83C40022280F83D2003685A689D68C7
:102AF00022F070060A6832435A60134B02689A4209
:102B000014D0B2F1804F11D0104B9A420ED0104B1E
:102B10009A420BD00F4B9A4208D00F4B9A4205D0E5
:102B20000E4B9A4202D00E4B9A4204D1496825F0CE
:102B300080031943916080F83D40002180F83C10EB
:102B4000084670BD022070BD000001400004004036
:102B500000080040000C004000040140004001401B
:102B60000018004010B5040003D094F83D0010B1E7
:102B700007E0012010BD002084F83C00204600F052
:102B80001FF8022084F83D00211D206802F010FD8E
:102B9000012084F8460084F83E0084F83F0084F861
:102BA000400084F8410084F8420084F8430084F82F
:102BB000440084F8450084F83D00002010BD00006A
:102BC00010B586B0044614216846FDF7A5FB2168C0
:102BD00000222648B1F1804F10D0254B994217D1E1
:102BE000016841F0100101600068052100F010004B
:102BF00005903620FEF7CAFF362034E0016841F028
:102C000001010160006800F00100059006B010BDF0
:102C100018488142FAD11548001D016841F00201AF
:102C20000160006800F0020005901048103801684B
:102C300041F0040101600068694600F0040005905D
:102C40004FF400700090022001900120CDE90202B3
:102C5000032004900848FEF761FB002205212E2086
:102C6000FEF794FF2E20FEF783FFCFE740380240A7
:102C700000100040000401400008024090F83D10A0
:102C8000012901D001207047022180F83D10016820
:102C9000CA6842F00102CA6000681149884214D033
:102CA000B0F1804F11D00F4988420ED00E498842B2
:102CB0000BD00E49884208D00D49884205D00D49F5
:102CC000884202D00C49884204D1816801F0070192
:102CD000062903D0016841F001010160002070471E
:102CE000000001400004004000080040000C0040CB
:102CF00000040140004001400018004070B5044647
:102D000090F83C000025012817D0012684F83C608B
:102D1000022084F83D002068826822F0770222F4C5
:102D20007F4282600868502838D00DDC20284FD0C0
:102D300005DC90B3102811D14AE0022070BD302884
:102D400046D040280AD13BE060282FD070280DD013
:102D5000B0F5805F03D0B0F5005F12D0012584F894
:102D60003D60002084F83C00284670BDCB68D1E966
:102D70000121206802F08DFC2068816841F0770114
:102D800009E0CB68D1E90121206802F082FC2068CB
:102D9000816841F480418160E1E719E0CA684968CF
:102DA000206802F04BFD5021206806E0CA6849689F
:102DB000206802F095FD6021206802F074FCCEE7E7
:102DC000CA684968206802F039FD40212068F4E7AC
:102DD000226801461046F0E72DE9F0410D46040057
:102DE00003D094F83D0018B108E00120BDE8F0815F
:102DF000002084F83C00204600F040F8022084F8CF
:102E00003D002068816844F2070291438160211DE2
:102E1000206802F0CDFB226890689169166A2B68E1
:102E2000AF69034340F20330814341EA0721A868B8
:102E3000EF6908434FF6FC418843E96840EA072000
:102E4000014328692F6A000140EA07300843696896
:102E50006D6926F0AA0646EA0515294393602268A3
:102E6000906154F8460B0162012004F81F09E075D7
:102E70002076E0762077A0750020B7E710B586B001
:102E8000044614216846FDF747FA13492068884232
:102E90001FD112480021026842F00202026000685D
:102EA00000F0020005900D481038026842F002025E
:102EB00002600068012200F00200059030200090BE
:102EC0000220CDE90102CDE9031069460448FEF76E
:102ED00025FA06B010BD0000000400404038024052
:102EE0000004024070B590F83E60044690F83F50F0
:102EF00090F8423090F84320022021B104290ED0EE
:102F0000012E1BD114E0012E18D1012B16D184F80B
:102F10003E0084F8420001220021206820E0012DBB
:102F20000CD1012A0AD184F83F0084F8430014E050
:102F3000012D03D1012B01D1012A01D0012070BD47
:102F400084F83E0084F83F0084F8420084F843008F
:102F500001220021206802F08FFB01220421206859
:102F600002F08AFB2068016841F001010160002045
:102F700070BD70472DE9F041054690F83C000026F1
:102F80000C46012810D0012085F83C0072B1042ABB
:102F90001CD0082A2CD00C2A50D00126002085F8FD
:102FA0003C003046BDE8F0810220FBE7D4E9001286
:102FB000E368286802F054FC2868816921F00C015C
:102FC000816128688169A26811430FE0D4E9001289
:102FD000E368286802F096FC2868816921F4406162
:102FE000816128688169A26841EA02218161D5E78F
:102FF0002868D4E9002C277B016A21F480710162E2
:10300000C169036A21F0030141EA0C0121F0F00CCF
:1030100039074FF420674CEA116123F4206307EA73
:1030200002221A43C16102622868C16921F00C01C1
:10303000C1612868C169A268114328E02868D4E901
:103040000027E168036A23F480530362D0F81CC0B0
:10305000036A2CF4407C4CEA07274FF6FF7C27F4E8
:1030600070470CEA013139434FF4204723F42043E1
:1030700007EA02321A43C16102622868C16921F479
:103080004061C1612868C169A26841EA0221C16149
:1030900084E710B5040003D094F83D0010B107E0B8
:1030A000012010BD002084F83C00204600F01EF8EE
:1030B000022084F83D00211D206802F079FA0120E9
:1030C00084F8460084F83E0084F83F0084F840000D
:1030D00084F8410084F8420084F8430084F84400F6
:1030E00084F8450084F83D00002010BD70470000C2
:1030F00030B50446002551B104290DD0082910D05F
:1031000094F8410094F84520012811D10EE094F87C
:103110003E0094F84220F7E794F83F0094F84320EB
:10312000F2E794F8400094F84420EDE7012A01D03A
:10313000012030BD022059B1042912D0082919D02C
:1031400084F8410084F845000C2944D0012540E072
:1031500084F83E0084F842002068C26842F002020F
:1031600010E084F83F0084F843002068C26842F011
:10317000040207E084F8400084F844002068C26834
:1031800042F00802C2600122206802F075FA144978
:103190002068884214D0B0F1804F11D01149884284
:1031A0000ED0114988420BD01049884208D01049EE
:1031B000884205D00F49884202D00F49884204D185
:1031C000816801F00701062903D0016841F001017F
:1031D0000160284630BD2068C26842F01002D1E785
:1031E000000001400004004000080040000C0040C6
:1031F00000040140004001400018004070B5044642
:10320000006801694FF00005C943890715D4C168FA
:10321000C943890711D4E91E016101202077206884
:1032200080698007204602D0FFF7A3FE04E000F08B
:10323000C1F8204600F053F9257720680169C94399
:10324000490717D4C168C943490713D46FF0040173
:103250000161022020772068806910F4407F2046B9
:1032600002D0FFF786FE04E000F0A4F8204600F04C
:1032700036F9257720680169C943090716D4C16862
:10328000C943090712D46FF00801016104202077B7
:103290002068C0698007204602D0FFF76AFE04E07C
:1032A00000F088F8204600F01AF9257720680169B7
:1032B000C943C90617D4C168C943C90613D46FF0FE
:1032C00010010161082020772068C06910F4407F58
:1032D000204602D0FFF74DFE04E000F06BF82046D8
:1032E00000F0FDF8257720680169C943C90708D1B6
:1032F000C168C943C90704D1891E0161204600F095
:1033000053F920680169C943090609D4C168C94352
:10331000090605D46FF0800101612046FFF7D8FB54
:1033200020680169C943490609D4C168C9434906EF
:1033300005D46FF040010161204600F03FF920689C
:103340000169C94389060BD4C168C943890607D4FA
:103350006FF0200101612046BDE87040FFF7B9BB66
:1033600070BD000010B586B0044614216846FCF715
:10337000D3FF2068B0F1804F15D10C4800210268BE
:1033800042F002020260006800F00200059008208E
:1033900000900220CDE901010120CDE9031069462A
:1033A0000348FDF7BBFF06B010BD000030380240F7
:1033B00000040240704770B5044690F83C000026B7
:1033C0000D4601280FD0012084F83C006AB1042A80
:1033D0001DD0082A2FD00C2A3FD00126002084F8C7
:1033E0003C00304670BD022070BD206802F064F9D8
:1033F0002068816941F0080181612068816921F0BC
:1034000004018161206881692A69114311E0206803
:1034100002F082F92068816941F4006181612068CD
:10342000816921F480618161206881692A6941EAAA
:1034300002218161D2E7206802F0A4F92068C16905
:1034400041F00801C1612068C16921F00401C16136
:103450002068C1692A69114311E0206802F0C6F9A9
:103460002068C16941F40061C1612068C16921F42B
:103470008061C1612068C1692A6941EA0221C16194
:10348000ACE710B5040003D094F83D0010B107E09C
:10349000012010BD002084F83C00204600F01EF8FA
:1034A000022084F83D00211D206802F081F80120EF
:1034B00084F8460084F83E0084F83F0084F8400019
:1034C00084F8410084F8420084F8430084F8440002
:1034D00084F8450084F83D00002010BD7047704717
:1034E00010B50446022249B104290ED0082913D090
:1034F00094F84100012816D0012010BD94F83E0038
:103500000128F9D184F83E200FE094F83F0001280B
:10351000F2D184F83F2008E094F840000128EBD174
:1035200084F8402001E084F841200122206802F064
:10353000A3F816492068164A884201D0904203D168
:10354000436C43F4004343642068884213D0B0F1D5
:10355000804F10D00F4988420DD00F4988420AD0C1
:103560000E49884207D0904205D00D49884202D0CA
:103570000C49884204D1816801F00701062903D073
:10358000016841F001010160002010BD0000014010
:10359000000401400004004000080040000C00400E
:1035A000004001400018004000680349884201D1F2
:1035B000FEF766BA7047000000000140704770B522
:1035C000040004D094F83D00002510B106E001206D
:1035D00070BD84F83C50204600F022F8242084F886
:1035E0003D002068C16821F40051C160204602F00E
:1035F0004BFA2068016921F490410161206841691A
:1036000021F02A0141612068C16841F40051C16084
:103610002564202084F83D0084F83E00002070BD21
:1036200010B586B0044614216846FCF775FE1449AF
:103630002068884221D113480021026842F010021C
:103640000260006800F0100005900E48143802680F
:1036500042F001020260006800F0010005904FF4A2
:10366000C06000900220CDE90101032003900720F3
:10367000049069460448FDF751FE06B010BD0000F5
:103680000010014044380240000002402DE9F84398
:10369000044690F83D001F4616460D4620284CD1A2
:1036A000C5B1BEB194F83C00012846D0012084F891
:1036B0003C004FF00008C4F84080212084F83D0011
:1036C000FDF736FFA6848146E684A068B0F5805FEA
:1036D00003D004E00120BDE8F883206928B12E461C
:1036E0005FF0000584F83C800EE00026FAE78021B8
:1036F000204602F04FFAA0B9AEB116F8010B2168CE
:103700004860E08C401EE084E08C4B464FF00002A5
:1037100000970028EBD14FF04001204602F03AFA22
:1037200030B10320D7E735F8020BC0F30800E6E715
:10373000202084F83D000020CDE70220CBE7FEE703
:1037400001684A69D24352050FD46FF480624A611E
:10375000002140F8301F202242738173026942F039
:1037600004020261017301207047002070470000CD
:103770002DE9F84F0446C06A1E4693460D4621685F
:103780000A6842F480620A60082807D0012805D040
:1037900010F5803F02D0206B112804D12068016809
:1037A00041F4807101604FF001195B4600224946E7
:1037B0002046009600F0C6F84FF4007840B120682B
:1037C0000068C00501D5C4F840800320BDE8F88F2B
:1037D0002069DFF884A0B0F5804F0FD00620216863
:1037E00000EAD51747F0F000086133465A460AF15F
:1037F0000601204600F0DAF858BB03E0E8B240F0DA
:1038000001001CE02168E8B2086133465A4651467F
:10381000204600F0CBF8E0B9206841698169009149
:10382000016841F4807101605B46002249462046F0
:10383000009600F087F80028C1D147F0F100216818
:10384000086133465A465146204600F0AFF800283A
:10385000BCD00120BAE7000002000100F8B5044620
:10386000C06A1E460D461746082807D0012805D015
:1038700010F5803F02D0206B122804D12068016827
:1038800041F480710160134600224FF0011120467F
:10389000009600F057F840B120680068C00502D5D6
:1038A0004FF4007020640320F8BD2069B0F5804F0C
:1038B0000ED00620216800EAD51040F0F000086123
:1038C00033463A460B49204600F070F878B902E0DA
:1038D00005F0FE0000E0E8B22168086105493346C2
:1038E0003A46891F204600F061F80028DCD001200C
:1038F000F8BD00000800010070B516460D460446EC
:103900000DE02046FFF71CFF08B1012070BD681CC8
:1039100005D0FDF70DFE801BA84207D835B1206801
:103920004069C0434007ECD4002070BD002044F83B
:10393000300F20216173A073216941F020012161C2
:103940002073E2E72DE9F0471E4690460D460446F7
:10395000C1F30747DDF8209008E0701C06D0FDF7A2
:10396000E7FDA0EB0900B0420FD876B12068012F27
:1039700018D0806925EA00000004000C14D0002152
:103980004145EAD00020BDE8F087002044F8300F20
:1039900020216173A073216941F02001216120730E
:1039A0000120F0E74069E5E70121E9E72DE9F0476B
:1039B0009A4691460E46044600254FF02008C1F372
:1039C000074725E020684069C043400514D42068BB
:1039D000016841F40071016021686FF48060486102
:1039E000256384F83D8084F83E50206C40F004004C
:1039F000206484F83C501FE0B9F1FF3F08D0FDF788
:103A000097FDA0EB0A0149450CD8B9F1000F09D088
:103A10002068012F13D0806926EA00000004000C02
:103A20000BD0CFE744F8305F84F80D80A573206990
:103A300040F02000206125730120BDE8F087406937
:103A4000EAE72DE9F041002590460E46044620277E
:103A500017E04069C043C0060CD454F8301B6FF027
:103A60001000486144F810596777A577206A2062F2
:103A7000257717E0FDF75CFDA0EB0800B04208D801
:103A80003EB120684169C9434906E2D40020BDE83F
:103A9000F08144F8305F6773A573206940F020001F
:103AA000206125730120F2E770B516460D460446E5
:103AB0000DE02046FFF744FE08B1012070BD681CF0
:103AC00005D0FDF735FD801BA84207D835B1206829
:103AD0004069C0430006ECD4002070BD002044F8CB
:103AE000300F20216173A073216941F02001216111
:103AF0002073E2E72DE9F8430BF0BAF90446002100
:103B000009F028F807460021204609F023F8064668
:103B10000021204609F01EF805460021204609F044
:103B200019F880460021204609F014F804462F4970
:103B30002F480BF0A4F92E492E48486238460AF067
:103B4000E3FE2DA1384609F042FD1E200090EB2334
:103B50000122002138460AF095F9304624490AF03E
:103B6000D3FE26A1304609F032FD46274323012229
:103B70000021304600970AF085F928461C490AF0D2
:103B8000C3FE1FA1284609F022FDDD2301220021EA
:103B9000284600970AF076F9404615490AF0B4FE27
:103BA00018A1404609F013FD9B200090DD2301225F
:103BB000002140460AF066F90D480C493C300BF0F4
:103BC0005EF90B4910483C31486220460AF09CFEE1
:103BD0000EA1204609F0FBFC002001460090E123E5
:103BE000012220460AF04EF9BDE8F883881B002028
:103BF000148B0020E0020020EE989100EE99A500C1
:103C0000EE99A600EEA2A90064030020EE988800B9
:103C10003EB5002002900122052102A802F0F2F92F
:103C20001E4C9DF808000422207000211C4802F060
:103C3000E9F91B4804220721083002F0E3F918488B
:103C400004220B21001D02F0DDF900F077FE01F0E7
:103C5000A3F900F001FE01F0D9FF01F01BF8207874
:103C6000012804D0022804D0032805D011E00C4814
:103C700004E00B48083001E00948001DC278817853
:103C8000CDE9001243780278054806A11C3002F005
:103C900059FB03481C30FCF751FF3EBDDF000020FC
:103CA00080020020256425642E2564256400000020
:103CB00070B50E46022812D10949087830430ED05B
:103CC000084D00200870A979002908D0A8710124A6
:103CD0006C71AC70FCF774FF012E00D1EC7170BDFB
:103CE00025000020D600002070B51D4C1D481E4E3A
:103CF000227A00254FF4805132B1012A0CD0022AD9
:103D000012D0032A2AD125E0FDF700FC002802D1B9
:103D100001202072356070BDFDF7F8FBF0B9306806
:103D20000A28F8D902200BE0FDF7F0FB012809D0A2
:103D30003068B0F5487FEED9A07800F017F803207E
:103D4000207270BDA07800F063F80121A078FFF721
:103D5000AFFF03E0FDF7DAFB0128F2D1257270BD59
:103D6000D6000020000802403000002010B50128D5
:103D700022D1124C607000F0B7FE11480178A9B151
:103D80000021017001F068FEE07888B10020E07049
:103D9000052001F0A9F8207960B100202071BDE86C
:103DA00010404FF400610748FDF7B5BB0121E8E77B
:103DB0000120ECE70120F1E710BD0000D600002053
:103DC000E0000020000802400F4810B501790129E9
:103DD00019D10E4A1178002915D0002111704279AD
:103DE000002A10D04171012181710221817001F0FE
:103DF00031FA0CF011FB01F09BF901F021F9BDE85B
:103E0000104001F091BA10BDD6000020240000201F
:103E1000012803D0022807D100F044BE0348C1782E
:103E2000002901D00121017070470000D600002058
:103E300010B5FFF759FFFFF7C7FF0348002180784F
:103E4000BDE81040FFF734BFD60000202DE9F04157
:103E500004461D4616460F462A2000F067F9204604
:103E600000F044F9304600F041F92B2000F05EF9F3
:103E7000384600F03BF9284600F038F9BDE8F0413B
:103E80002C2000F053B92DE9F041141A5F1A641C7C
:103E90007F1C0025A4B2BFB2069EFFF7D7FF7C436C
:103EA00004E0308800F022F96D1CB61CAC42F8D852
:103EB000BDE8F08110B58B4C002201212046FDF7B2
:103EC00032FB6420FDF7EEF9012211462046FDF792
:103ED0002AFB6420FDF7E6F9012208218248FDF75C
:103EE00022FB6420FDF7DEF9112000F01FF9782095
:103EF000FDF7D8F9CF2000F019F9002000F00CF9F7
:103F0000C12000F009F9302000F006F9ED2000F0A2
:103F10000DF9642000F000F9032000F0FDF81220F4
:103F200000F0FAF8812000F0F7F8E82000F0FEF841
:103F3000852000F0F1F8002000F0EEF8792000F084
:103F4000EBF8CB2000F0F2F8392000F0E5F82C2057
:103F500000F0E2F8002000F0DFF8342000F0DCF898
:103F6000022000F0D9F8F72000F0E0F8202000F05F
:103F7000D3F8EA2000F0DAF8002000F0CDF80020B5
:103F800000F0CAF8C02000F0D1F81D2000F0C4F8FD
:103F9000C12000F0CBF8122000F0BEF8C52000F0E0
:103FA000C5F8332000F0B8F83F2000F0B5F8C7207E
:103FB00000F0BCF8922000F0AFF83A2000F0B6F81C
:103FC000552000F0A9F8362000F0B0F8A82000F045
:103FD000A3F8B12000F0AAF8002000F09DF812200C
:103FE00000F09AF8B62000F0A1F80A2000F094F84A
:103FF000A22000F091F8442000F098F8022000F090
:104000008BF8F22000F092F8002000F085F82620CE
:1040100000F08CF8012000F07FF8E02000F086F836
:104020000F2000F079F8222000F076F81C2000F034
:1040300073F81B2000F070F8082000F06DF80F20D6
:1040400000F06AF8482000F067F8B82000F064F843
:10405000342000F061F8052000F05EF80C2000F03C
:104060005BF8092000F058F80F2000F055F8072001
:1040700000F052F8002000F04FF8E12000F056F870
:10408000002000F049F8232000F046F8242000F03A
:1040900043F8072000F040F8102000F03DF807201A
:1040A00000F03AF8382000F037F8472000F034F8F4
:1040B0004B2000F031F80A2000F02EF8132000F019
:1040C0002BF8062000F028F8302000F025F83820E2
:1040D00000F022F80F2000F01FF8BDE81040292062
:1040E00000F024B800040240000002401CB5010AA0
:1040F0008DF800108DF804000A2301226946054856
:10410000FEF742FB0A23012201A90248FEF73CFB0D
:104110001CBD00004007002001B50A2301226946AA
:104120000148FEF731FB08BD4007002031B5094CBE
:10413000002220212046FDF7F6F90A2301226946D4
:104140000548FEF721FB012220212046FDF7EBF96F
:1041500038BD000000080240400700201CB5C0F335
:1041600003218DF804108DF805004FF47A7407E0F0
:104170000848FDF7E3F9042802D007A001F0B6FDD6
:10418000022301AAC02103480094FDF78DFB0028FB
:10419000EED11CBD780600206164733131313520C9
:1041A000436F6E6669672052656769737465722034
:1041B0006572726F722121210D0A00001FB5002166
:1041C0001648009101910291134A03910260012463
:1041D0004FF480320461C0E90121047680F8201098
:1041E0000F4AC0E90A21C461C16080F830104461FF
:1041F000FCF76EFF08B1FCF7E0FC0B20CDE90004F2
:104200000420029069460548FCF712FE002801D000
:10421000FCF7D3FC1FBD0000002001403006002049
:104220000100000F10B5C0B01C2232496846FCF7EF
:104230005AF8002168460BF032FD2F4C2D491C2204
:1042400020601C3107A8FCF74EF8002107A80BF0EE
:1042500026FD284960601C2238310EA8FCF743F87F
:1042600000210EA80BF01BFD2249A0601C22543136
:1042700015A8FCF738F8002115A80BF010FD1D4912
:10428000E0601C2270311CA8FCF72DF800211CA84E
:104290000BF005FD174920611C228C3123A8FCF787
:1042A00022F8002123A80BF0FAFC124960611C22BD
:1042B000A8312AA8FCF717F800212AA80BF0EFFC78
:1042C0000C49A0611C22C43131A8FCF70CF8002174
:1042D00031A80BF0E4FC0749E0611C22E03138A86A
:1042E000FCF701F8002138A80BF0D9FC206240B09F
:1042F00010BD00009C0C0108000000202DE9F04FCB
:1043000087B014216846FCF707F84E48002401687E
:1043100041F080010160016801F0800105910168B0
:1043200041F004010160016801F004010591016898
:1043300041F001010160016801F00101059101688E
:1043400041F0020101600068DFF8FC9000F002001B
:104350000590002240F608014846FDF7E4F8DFF832
:10436000ECA000224FF403615046FDF7DCF8DFF8C3
:10437000E0B0002201215846FDF7D5F801220221C4
:104380005846FDF7D0F84FF4805801224146484680
:10439000FDF7C9F808200125022603278DE8E10072
:1043A00069464846FCF7BAFF30208DE8E1006946CF
:1043B0005046FCF7B3FF03970095CDE901546946D9
:1043C0005846FCF7ABFF0096CDE9015469465846C4
:1043D0000394FCF7A3FFF8020090CDE9015469466D
:1043E00048460394FCF79AFFE8038DE851006946BC
:1043F0004846FCF793FFE8020090CDE90154694676
:1044000050460394FCF78AFFCDF800806946504679
:10441000CDE90145FCF782FF380200904FF404100B
:10442000CDE9010569465846FCF778FF00220521D1
:104430001720FDF7ABFB1720FDF79AFB07B0BDE88F
:10444000F08F0000303802400000024000080240B7
:10445000000402400D4810B50B4901600C49416051
:1044600000214FF480428160C0E903124161816103
:10447000C1610162FDF764F8002803D0BDE8104077
:10448000FCF79BBB10BD00000054004078060020E4
:10449000801A06000D4810B50B4901600C494160B7
:1044A00000214FF480428160C0E9031241618161C3
:1044B000C1610162FDF744F8002803D0BDE8104057
:1044C000FCF77BBB10BD000000580040CC0600206C
:1044D000A086010010B586B014216846FBF71CFFCA
:1044E0001B48002419490594C0E900147F2181600C
:1044F000FF21C0E9031444618461FDF727FF08B17F
:10450000FCF75BFB8DF800408DF801408DF8024010
:104510000394012269460E480494FDF7EDFF08B1AB
:10452000FCF74BFB01208DF814008DF815008DF879
:10453000160002468DF8174005A90548FDF778FFDB
:10454000002801D0FCF739FB06B010BD0028004060
:10455000200700200F4810B50D4901604FF482710B
:10456000416000218160C1604FF400720161C0E9C7
:104570000512C1610162416281620A21C162FEF7D6
:104580004CF8002803D0BDE81040FCF716BB10BD66
:1045900000300140400700200F4810B50D49016070
:1045A0004FF48271416000218160C1604FF400725C
:1045B0000161C0E90512C1610162416281620A21A3
:1045C000C162FEF72AF8002803D0BDE81040FCF7CE
:1045D000F4BA10BD003800409807002010B58EB026
:1045E00000240794089409940A940B941C216846AB
:1045F0000C94FBF791FE1D484FF08041016017219C
:10460000C0E901148B21C0E903148461FEF7AAFA02
:1046100008B1FCF7D2FA4FF48050079007A913486D
:10462000FEF76CFB08B1FCF7C8FA1048FEF729FF4B
:1046300008B1FCF7C2FA0B940BA90C480C94FEF7D6
:1046400049FA08B1FCF7B9FA6020CDE900040294F8
:104650000422694605480494FEF7ADFE08B1FCF754
:10466000ACFA0248FEF77EFE0EB010BDF007002047
:1046700010B58CB024216846FBF74EFE0024164886
:10468000099414490A9401600321C0E901144FF60A
:10469000FF72C0E90324846100910120CDE901404B
:1046A00003940494CDE90540079469460A480894A8
:1046B000FEF792FB08B1FCF780FA099409A90648B5
:1046C0000A94FEF707FA002801D0FCF776FA0CB03E
:1046D00010BD000000040040380800201CB5002474
:1046E0000F4800940D490194016040F2A311C0E904
:1046F0000114C721C16080218161FEF733FA08B13E
:10470000FCF75BFA0094694605480194FEF7E2F96C
:10471000002801D0FCF751FA1CBD00000010004039
:104720008008002010B58AB0002424480494059421
:1047300006940794089409940094019402941E49E5
:1047400003940160A721C0E901144FF6FF71C0E98D
:1047500003148021C0E90541FEF704FA08B1FCF713
:104760002CFA4FF48050049004A91448FEF7C6FABE
:1047700008B1FCF722FA1148FEF78BFC08B1FCF7F0
:104780001CFA089408A90D480994FEF7A3F908B18A
:10479000FCF713FA022000900120CDE901040C225D
:1047A000694606480394FEF7E5FB002801D0FCF7B4
:1047B00004FA0AB010BD000000040140C80800203F
:1047C0000C4810B50A4901604FF4E1314160002105
:1047D00081600C22C160C0E904128161C161FEF7F1
:1047E000EEFE002803D0BDE81040FCF7E6B910BD8E
:1047F0000010014010090020FEE7000038B5144900
:1048000014480AF03CFB1348002478380094BDF8A3
:10481000001020F87A1FBDF8001041800D49822059
:1048200008720AF025FB002109F0C6FC0546162295
:104830004FF4A0710AF028F8064928460AF064F8F7
:104840000023012219462846009409F01BFB38BDBD
:10485000881B00208C8B002038B51148114C002596
:104860000178E06C012909D002290DD0032915D166
:104870000DA108F0ACFE702300950AE00FA108F02E
:10488000A6FE8023009504E010A108F0A0FE782386
:10489000009501220021E06C09F0F4FA38BD000017
:1048A000DF0000201C020020E794B5E6B1A0E5AED1
:1048B000B9E9878FE6B58BE8AF950000E68192E60F
:1048C000B581E6A8A1E5BC8F00000000E68192E575
:1048D0008A9FE78E87E6A8A1E5BC8F0038B50AF06D
:1048E000C7FA002108F036F90C4C0D49E0640D4878
:1048F0000AF0C5FA0B490C484862E06C0AF004F86B
:104900000AA1E06C08F063FE0020014600908023BD
:104910000122E06C09F0B6FA38BD00001C0200204C
:10492000881B0020108F00200C030020E68192E6F7
:10493000B581E6A8A1E5BC8F0000000038B5194894
:104940001A4902781848012A04D0022A09D0032AF9
:104950000ED017E0C26B0092BDF800204A84006CB4
:104960000CE0426C0092BDF800204A84806C05E0A7
:10497000C26C0092BDF800204A84006D0090BDF822
:10498000000088840A4C606D09F021FFA06D09F0D9
:104990001EFFE06D09F01BFF206EBDE8384009F0F6
:1049A00016BF0000DF00002088F30108949000206B
:1049B0001C02002038B5374937480AF060FA3748FA
:1049C000416B00913449BDF8002020394A84806B46
:1049D0000090BDF8000088842F48A02101720A21B0
:1049E000C1800AF045FA002109F0E6FB2C4C4B226D
:1049F0009121606509F048FF2749606D09F084FF47
:104A0000462500950A2301220021606D09F03AFA3B
:104A10000AF02EFA002109F0CFFB4B229121A0656C
:104A200009F032FF1C49A06D09F06EFF0095A52327
:104A300001220021A06D09F025FA0AF019FA0021DF
:104A400009F0BAFB4B229121E06509F01DFF1249E4
:104A5000E06D09F059FF9B2500950A2301220021F2
:104A6000E06D09F00FFA0AF003FA002109F0A4FB47
:104A70004B229121206609F007FF0749206E09F0BB
:104A800043FF0095A52301220021206E09F0FAF9C9
:104A900038BD0000881B0020B490002088F3010876
:104AA0001C02002038B500200C4C0D4900902078E5
:104AB0004978884211D0FFF741FF00F06DFAFFF707
:104AC000CBFE01F0A3F800F0E5F820788DF80000A7
:104AD00001220521684601F07FFB38BDDF00002080
:104AE0001C020020FEE70000114882B0017871B17D
:104AF000002303700E480F4A0F49C0684BB1136979
:104B00000093BDF8003021F8663F526908E00123A8
:104B1000EFE793690093BDF8003021F8663FD26952
:104B20000092BDF800204A8002B009F050BE00009B
:104B30001C02002088F301081490002038B51749A2
:104B400017480AF09CF91748816800911449BDF88C
:104B50000020643921F8662FC0680090BDF800007D
:104B600048800F48A02101720A21C1800AF080F913
:104B7000002109F021FB0C4C18224021E06009F0D3
:104B800083FE0749E06809F0BFFE242000906A23F5
:104B900001220021E06809F075F938BD881B00206A
:104BA0007890002088F301081C0200200F489FED38
:104BB0000E0A80ED020A9FED0E0A80ED030AB1EEA7
:104BC000040A80ED040AB3EE040A80ED070ABBEE86
:104BD000040A80ED080AB2EE040A80ED090ABAEE72
:104BE000040A80ED0A0A7047000096431C1A002050
:104BF0000000484230EE600A254880ED000AD0ED02
:104C0000050A90ED031A41EE000AC0ED050A90ED89
:104C1000091AF4EEC10AF1EE10FA02DAB0EE601AE7
:104C200001E080ED051AD0ED0A0AB4EEE01AF1EECB
:104C300010FA02D9F0EE410A01E0C0ED050A90ED4C
:104C4000021AD0ED041A41EE000A90ED011A30EE7E
:104C5000411A41EE810AC0ED060A80ED010A90ED8D
:104C6000070AF4EEC00AF1EE10FA01DB80ED060A45
:104C7000D0ED060A90ED080AF4EEC00AF1EE10FA43
:104C800002D9B0EE600A704780ED060A7047000056
:104C90001C1A00200648017806480129C06F05D07B
:104CA000022903D004A100BF08F091BC03A1FBE7D7
:104CB000DF0000201C020020EE98AB00EE99A80057
:104CC00038B50AF0D5F8002107F044FF0A4C0B492B
:104CD000E0670B480AF0D3F809490A484862E06FD8
:104CE00009F012FE9B200090432301220021E06F77
:104CF00009F0C8F838BD00001C020020881B002005
:104D000000900020E0020020010901EB810100F089
:104D10000F0000EB4100C0B27047002102E00A38EA
:104D2000C0B2491C0A28FAD2090740EA116070474C
:104D300070B504460068C168490614D44FF0FF31CD
:104D4000C160FCF7F5FB05464FF47A7607E000BF3B
:104D5000FCF7EEFB401BB04201D9032070BD206878
:104D6000C0684006F4D5002070BD0000014602482E
:104D7000006A08F02CBC00001C02002038B50AF0C4
:104D800077F8002107F0E6FE0C4C0D4920620D4833
:104D90000AF075F80B490C484862206A09F0B4FD26
:104DA0000AA1206A08F013FCC3200090B723012257
:104DB0000021206A09F066F838BD00001C020020BE
:104DC000881B0020A88D0020A801002030303A3038
:104DD000303A30300000000038B504461248134B1A
:104DE0000068B0FBF3F04FF47A73584300906068AA
:104DF000B0F5827F0DD10B46009200228021204623
:104E000000F016F870B1606D40F02000606503207E
:104E100038BD009830B1401E009020688068C043C3
:104E20000006F6D5002038BD4000002000366E0197
:104E30002DE9F8431E46914688460446089DFCF736
:104E400077FB401B351AFCF773FB074625480068C3
:104E5000C0F3CB30684338E0701C37D0FCF768FBF8
:104E6000C01BA84203D215B1009860B32CE02068A3
:104E7000416821F0E00141606068B0F5827F0BD1AC
:104E8000A068B0F5004F02D0B0F5806F04D1206863
:104E9000016821F040010160A06AB0F5005F09D10E
:104EA0002068016821F4005101602068016841F424
:104EB00000510160012084F85100002084F8500066
:104EC0000320BDE8F8830025401E0090206881681B
:104ED00038EA010004D000214945BDD10020F0E7A7
:104EE0000121F9E74000002038B5104D04460128A3
:104EF00006D0022C08D0032C08D0042C08D008E0DF
:104F00007023FF20287204E07C2302E08E2300E05F
:104F10009A2324200090064801220021806808F08E
:104F2000B1FF052C01D10020287238BD3C90002033
:104F30001C02002038B51449144809F0A0FF144899
:104F4000016800911149BDF8002028394A85406860
:104F50000090BDF80000888528310020087209F013
:104F600087FF002109F028F90A4C18220A21A060C5
:104F700009F08AFC0549A06809F0C6FCA068BDE8F4
:104F8000384009F0E7BB0000881B00203C9000205F
:104F900088F301081C02002007480178074801290E
:104FA000006D03D0022903D0032904D104A100E03D
:104FB00007A108F00CBB7047DF0000201C02002096
:104FC000E794B5E6B581E8AEBEE5AE9A3A000000DA
:104FD000E58A9FE78E87E8AEBEE5AE9A3A0000000C
:104FE00038B509F045FF002107F0B4FD0C4C0D4920
:104FF00020650D4809F043FF0B490C484862206DBD
:1050000009F082FC0AA1206D08F0E1FA2520009049
:105010000A2301220021206D08F034FF38BD000072
:105020001C020020881B00204C8F00203803002029
:10503000E794B5E6B581E8AEBEE5AE9A3A00000069
:1050400038B53749374809F01AFF37480025806AD4
:1050500000903448BDF80010001F0187001D012199
:1050600020F8361F6421C570817009F001FF00210E
:1050700008F060FB2D4C022204F18601A06308F0C9
:10508000B7FC2849A06B09F03FFC002300950122E2
:105090001946A06B08F0F6FE09F0EAFE002108F0C0
:1050A00049FB022204F18E01E06308F0A1FC1D49D6
:1050B000E06B09F029FC0023009501221946E06B02
:1050C00008F0E0FE09F0D4FE002108F033FB0222D4
:1050D00004F19601206408F08BFC1249206C09F061
:1050E00013FC0023009501221946206C08F0CAFE2B
:1050F00009F0BEFE002108F01DFB022204F19E0112
:10510000606408F075FC0749606C09F0FDFB002342
:10511000009501221946606C08F0B4FE38BD00000D
:105120004C1B0020988E002088F301081C020020F0
:1051300038B509F09DFE002107F00CFD314CA0624E
:1051400009F096FE002107F005FDE06209F090FEEF
:10515000002107F0FFFC206309F08AFE002107F020
:10516000F9FC60632849294809F089FE2749284845
:105170004862264824493C3009F081FE23492548ED
:105180003C314862A06A09F0BFFB23A1A06A08F085
:105190001EFA4B200023009002221946A06A08F054
:1051A00071FE1A49E06A09F0AFFB1DA1E06A08F040
:1051B0000EFA73200090142301220021E06A08F007
:1051C00061FE1249206B09F09FFB19A1206B08F0CA
:1051D000FEF99B200090142301220021206B08F08F
:1051E00051FE0A49606B09F08FFB15A1606B08F056
:1051F000EEF9C3200090142301220021606B08F017
:1052000041FE38BD1C020020881B0020208E00209B
:10521000380300200C030020E8AEBEE7BDAE00005E
:10522000E68192E6B581E6A8A1E5BC8F000000000A
:10523000E68192E58A9FE78E87E6A8A1E5BC8F000C
:10524000E794B5E6B1A0E5AEB9E9878FE6B58BE89E
:10525000AF95000038B509F00BFE002108F0ACFF57
:10526000134C14496062144809F009FE1348016A9E
:1052700000911149BDF80020503921F8522F406AA1
:105280000090BDF800004880A0224FF49671606A3B
:1052900009F0FAFA0849606A09F036FB46200090E6
:1052A0000A2301220021606A08F0ECFD38BD0000ED
:1052B0001C020020881B0020E48D002088F30108D8
:1052C00001200AF0E0FCFBE7FBF7E4FC01200AF018
:1052D000DAFCF9E7FEF7ACFD01200AF0D4FCF9E7AF
:1052E00000F064FB01200AF0CEFCF9E7FBF710FDAB
:1052F00001200AF0C8FCF9E701F044FE01200AF0A1
:10530000C2FCF9E700F006FD01200AF0BCFCF9E759
:1053100002F03EFA01200AF0B6FCF9E70AF0DCF8E8
:1053200001200AF0B0FCF9E700B50AA185B0D1E987
:1053300000010AA2CDE9030107CA8DE8070000F0C9
:105340008BFB03A80AF0D6FC6846FFF70FFD05B0FB
:1053500000BD000030302E303000000030303A30D8
:10536000303A30300000000010B5502080F3118832
:10537000BFF34F8FBFF36F8F0BF0C8FB18B1044919
:105380004FF080500860002080F3118810BD0000AD
:1053900004ED00E030B593B030216846FAF7BCFF69
:1053A00014210CA8FAF7B8FF1F480025016841F046
:1053B00080510160006800F0805011901B48016826
:1053C00041F4804101600068022400F480401190A3
:1053D000092000904FF4803001900120CDE90504B0
:1053E00080050790192008904FF4A870CDE90904B2
:1053F00004200B906846FCF7A5FD08B172B6FEE7E5
:105400000CA90F2081E831004FF4A0500F904FF409
:105410008050109005210CA8FCF788FC002801D0D2
:1054200072B6FEE713B030BD403802400070004055
:105430000248016841F470010160704788ED00E0A6
:105440002DE9F84309F014FD0446002107F082FB22
:1054500007460021204607F07DFB06460021204636
:1054600007F078FB05460021204607F073FB044651
:105470002D492E4809F003FD2C492D484862384635
:1054800009F042FA2BA1384608F0A1F84FF06E0857
:105490007D23012200213846CDF8008008F0F2FC7F
:1054A0003046224909F030FA23A1304608F08FF83F
:1054B0004FF48C73012200213046CDF8008008F0B3
:1054C000E1FC1A4818493C3009F0D9FC17491B483F
:1054D0003C314862204609F017FA19A1204608F02D
:1054E00076F8252000904FF4917301220021204688
:1054F00008F0C8FC0D480C49783009F0C0FC0B4995
:10550000114878314862284609F0FEF90FA1284673
:1055100008F05DF80020034601460090032228466B
:1055200008F0B0FCBDE8F883881B0020C88B002081
:10553000A8010020410000005600000038030020B0
:1055400020E28483200000005001002052504D00D2
:105550000148FDF753BE0000D409002010B501201A
:105560000AF072F80A48C168491CC160C188491C28
:10557000C1800189491C01818178491C8170C178F1
:10558000491CC170BDE810400248FDF737BE00005D
:10559000240000208008002003488188491C818065
:1055A0000248FDF72BBE000024000020C8080020A0
:1055B000F0B50268254C264D264E274F274B4FF05D
:1055C000804CA04209D0604507D0A84205D0B04227
:1055D00003D0B84201D0984204D122F0700E4A683C
:1055E00042EA0E02A0421BD0604519D0A84217D053
:1055F000B04215D0B84213D0984211D0184DA842ED
:105600000ED0184DA8420BD0174DA84208D0174D08
:10561000A84205D0164DA84202D0164DA84203D18B
:1056200022F44075CA682A434D6922F080022A4359
:1056300002608A68C2620A688262A04201D098420F
:1056400001D10969016301214161F0BD0000014000
:105650000004004000080040000C0040000401402D
:105660000040014000440140004801400018004053
:10567000001C00400020004010B501F01F03012174
:10568000046A99408C430462016A9A4011430162A2
:1056900010BD10B5846842EA032224F47F440A4313
:1056A0002243826010BD826822F070020A4342F0F9
:1056B0000701816070470000F0B5026A22F0010224
:1056C0000262036A42688469124E24F073050C6812
:1056D0002C4323F002058B682B430D4DA84201D0CB
:1056E000B04205D123F00807CB683B4323F0040305
:1056F000A84201D0B04205D14D6922F44072154351
:105700008A692A4342608461496841630362F0BD4B
:105710000000014000040140F0B5026A22F01002CE
:105720000262026A436884690D6824F4E64444EA2C
:1057300005248D6822F0200242EA05120F4D104E1A
:10574000A84201D0B04206D1CF6822F0800242EADE
:10575000071222F04002A84201D0B04207D14D69A1
:1057600023F4406343EA85038D6943EA850343607C
:105770008461496881630262F0BD0000000001405D
:1057800000040140F0B5026A22F480720262026AEB
:105790004368C46922F4007224F073050C68124E49
:1057A0002C438D6842EA05220E4DA84201D0B0423A
:1057B00006D1CF6822F4006242EA072222F4806216
:1057C000A84201D0B04207D14D6923F4405343EAC7
:1057D00005138D6943EA05134360C4614968C163D9
:1057E0000262F0BD000001400004014030B5026AD1
:1057F00022F480520262046A4268C3690D6823F48D
:10580000E64343EA05238D6824F4005444EA053452
:10581000084DA84202D0084DA84204D14D6922F497
:10582000804242EA85124260C361496801640462B1
:1058300030BD0000000001400004014010B5036AC3
:10584000046A24F001040462846924F0F00444EA48
:10585000021423F00A020A438461026210BD0000B0
:1058600070B5046A24F0010404628469056A154E67
:10587000B04214D0B0F1804F11D0134EB0420ED0D0
:10588000124EB0420BD0124EB04208D0114EB04270
:1058900005D0114EB04202D0104EB04203D124F0D8
:1058A0000304144301E044F001041A0724F0F00457
:1058B00044EA126225F00A0301F00A0119438261E9
:1058C000016270BD0000014000040040000800407B
:1058D000000C00400004014000400140001800405E
:1058E00010B5036A23F0100303628369046A23F48A
:1058F000704343EA023224F0A00343EA01118261BB
:10590000016210BD30B5046A24F010040462846999
:10591000056A24F4407444EA022222F470444FF6EB
:10592000FF7202EA03322243A02425F0A00304EA16
:10593000011119438261016230BD00000148FBF78B
:105940002BBC00003006002001460248006907F029
:105950003EBE00001C02002038B509F089FA002183
:1059600007F0F8F80C4C0D4920610D4809F087FA52
:105970000B490C484862206908F0C6FF0AA120695B
:1059800007F025FE2520009040F207130122002198
:10599000206908F077FA38BD1C020020881B00201F
:1059A000B88C00207C0100203030000010B5244865
:1059B0002DED028B0188B1F5FA7F35D300240480E8
:1059C000FBF7E8F9B0EE408AF2EE040AB1EE040A01
:1059D0000A2008EE200ABDEEC00A10EE101A91FB54
:1059E000F0F191FBF0F391FBF0F200FB131315A122
:1059F000164800F0A7FC1548FFF7A6FF18EE100A9E
:105A0000134901441148801EB1F5F01F04D2BCEEC9
:105A1000C80A10EE101A06E018EE101A0D4A91424C
:105A200005DB40F6FF710180BDEC028B10BD18EE66
:105A3000101A074A52429142F6DA0480F4E7000055
:105A40002C00002025642564000000004600002092
:105A500000006ABD0000B44200B585B0142168465C
:105A6000FAF75AFC00208DF800008DF801008DF83F
:105A7000020003900490012269460248FCF73CFDB5
:105A800005B000BD2007002070B50446006801691C
:105A9000E26821F44051114301612169A068E26983
:105AA00008436169114308432168CA6849F20C63DD
:105AB0009A430243CA6020684169A26921F4407197
:105AC0001143416131492068884202D030498842FF
:105AD00002D1FCF7F5F901E0FCF7E2F9E2690023F5
